:060000000A128A11122809
:10000800FE00030EF0000408F1000A08F200831253
:1000180003137F08F3000A128A11F52D0A128A11B8
:10002800152883136930FD000630FE000030FF00FC
:10003800603084000A128A11E8250A128A110A120D
:100048008A1111260A128A11F800A0308400E030C3
:100058000A128A1109260A128A1120308400603097
:100068000A128A110926F601F70183010A128A1178
:100078003D28F501F50A0730831603139F00C030A9
:100088008100860183120313620886008316031316
:10009800860183120313620886006008031DE7289F
:1000A8006508031DE728400883160313E0000230A3
:1000B8000310E00CFF3E031D5C286008063EE100CB
:1000C800610883120313D4004008183E83160313F3
:1000D800E000FC300318FD30E100610DE10CE00C9C
:1000E800610DE10CE00C6008E20062088312031362
:1000F800D400410883160313E00003300310E00C1A
:10010800FF3E031D82286008E10061088312031383
:10011800E300420883160313E00003300310E00CE9
:10012800FF3E031D92286008E10061088312031353
:10013800E100023065020318E7284008831603131C
:10014800E00002300310E00CFF3E031DA628600803
:10015800063EE100610883120313D4004008183EEC
:1001680083160313E000FC300318FD30E100610D35
:10017800E10CE00C610DE10CE00C6008E2006208A3
:1001880083120313D400410883160313E0000330DD
:100198000310E00CFF3E031DCC286008E100610855
:1001A80083120313E300420883160313E0000330AD
:1001B8000310E00CFF3E031DDC286008E100610825
:1001C80083120313E1000330650203187B294008FA
:1001D80083160313E00002300310E00CFF3E031DFA
:1001E800F0286008063EE100610883120313D4007A
:1001F8004008183E83160313E000FC300318FD3056
:10020800E100610DE10CE00C610DE10CE00C60080F
:10021800E200620883120313D40041088316031313
:10022800E00003300310E00CFF3E031D16296008B0
:10023800E100610883120313E300420883160313E5
:10024800E00003300310E00CFF3E031D2629600880
:10025800E100610883120313E1000430650203180A
:100268007B29400883160313E00002300310E00CDA
:10027800FF3E031D3A296008063EE100610883122B
:100288000313D4004008183E83160313E000FC3023
:100298000318FD30E100610DE10CE00C610DE10C8B
:1002A800E00C6008E200620883120313D4004108DE
:1002B80083160313E00003300310E00CFF3E031D18
:1002C80060296008E100610883120313E300420813
:1002D80083160313E00003300310E00CFF3E031DF8
:1002E80070296008E100610883120313E1000530FA
:1002F800650203180F2A400883160313E000023032
:100308000310E00CFF3E031D84296008063EE1004F
:10031800610883120313D4004008183E83160313A0
:10032800E000FC300318FD30E100610DE10CE00C49
:10033800610DE10CE00C6008E2006208831203130F
:10034800D400410883160313E00003300310E00CC7
:10035800FF3E031DAA296008E10061088312031308
:10036800E300420883160313E00003300310E00C97
:10037800FF3E031DBA296008E100610883120313D8
:10038800E1000630650203180F2A4008831603139C
:10039800E00002300310E00CFF3E031DCE29600888
:1003A800063EE100610883120313D4004008183E9A
:1003B80083160313E000FC300318FD30E100610DE3
:1003C800E10CE00C610DE10CE00C6008E200620851
:1003D80083120313D400410883160313E00003308B
:1003E8000310E00CFF3E031DF4296008E1006108DA
:1003F80083120313E300420883160313E00003305B
:100408000310E00CFF3E031D042A6008E1006108A8
:1004180083120313E1006608031D732A6508031D90
:10042800732A013083160313E000831203135B0A57
:1004380083160313212A0310E00DFF3E031D1F2A14
:100448006008E100610883120313CB0001308316B2
:100458000313E00083120313590A83160313362A81
:100468000310E00DFF3E031D342A6008FF3AE10047
:10047800610883120313CB00013083160313E000D5
:10048800831203135C0A831603134C2A0310E00D2E
:10049800FF3E031D4A2A6008E10061088312031326
:1004A800CD00013083160313E000831203135D0AA5
:1004B80083160313612A0310E00DFF3E031D5F2A14
:1004C8006008FF3AE100610883120313CD00FF3092
:1004D80083160313E000600883120313D800023068
:1004E80065020318D52A013083160313E00083122E
:1004F80003135B0A83160313832A0310E00DFF3EE0
:10050800031D812A6008E100610883120313CB00F0
:10051800013083160313E00083120313590A83166C
:100528000313982A0310E00DFF3E031D962A600866
:10053800FF3AE100610883120313CB0001308316F0
:100548000313E000831203135C0A83160313AE2A15
:100558000310E00DFF3E031DAC2A6008E1006108AE
:1005680083120313CD00013083160313E0008312B6
:1005780003135D0A83160313C32A0310E00DFF3E1D
:10058800031DC12A6008FF3AE100610883120313C2
:10059800CD00FF3083160313E000600883120313B5
:1005A800D800033065020318372B01308316031374
:1005B800E000831203135B0A83160313E52A031072
:1005C800E00DFF3E031DE32A6008E1006108831285
:1005D8000313CB00013083160313E00083120313C7
:1005E800590A83160313FA2A0310E00DFF3E031D70
:1005F800F82A6008FF3AE100610883120313CB0070
:10060800013083160313E000831203135C0A831678
:100618000313102B0310E00DFF3E031D0E2B600883
:10062800E100610883120313CD0001308316031320
:10063800E000831203135D0A83160313252B0310AE
:10064800E00DFF3E031D232B6008FF3AE10061081F
:1006580083120313CD00FF3083160313E0006008F4
:1006680083120313D800043065020318992B013054
:1006780083160313E000831203135B0A8316031324
:10068800472B0310E00DFF3E031D452B6008E100DA
:10069800610883120313CB00013083160313E000B3
:1006A80083120313590A831603135C2B0310E00DFE
:1006B800FF3E031D5A2B6008FF3AE10061088312D0
:1006C8000313CB00013083160313E00083120313D6
:1006D8005C0A83160313722B0310E00DFF3E031D03
:1006E800702B6008E100610883120313CD0001300C
:1006F80083160313E000831203135D0A83160313A2
:10070800872B0310E00DFF3E031D852B6008FF3A81
:10071800E100610883120313CD00FF308316031331
:10072800E000600883120313D8000530650203183F
:10073800FB2B013083160313E000831203135B0ABB
:1007480083160313A92B0310E00DFF3E031DA72BEF
:100758006008E100610883120313CB00013083169F
:100768000313E00083120313590A83160313BE2BE5
:100778000310E00DFF3E031DBC2B6008FF3AE100AB
:10078800610883120313CB00013083160313E000C2
:10079800831203135C0A83160313D42B0310E00D92
:1007A800FF3E031DD22B6008E1006108831203138A
:1007B800CD00013083160313E000831203135D0A92
:1007C80083160313E92B0310E00DFF3E031DE72BEF
:1007D8006008FF3AE100610883120313CD00FF307F
:1007E80083160313E000600883120313D800680817
:1007F800031DA32C013083160313E0008312031397
:100808005E0A831603130A2C0310E00DFF3E031D36
:10081800082C6008E100610883120313D20001303C
:1008280083160313E00083120313510A831603137C
:100838001F2C0310E00DFF3E031D1D2C0130E100AD
:10084800831203134F0A831603132C2C0310E10D94
:10085800FF3E031D2A2C0130E200831203135F0AB6
:1008680083160313392C0310E20DFF3E031D372CAA
:10087800620861046004E300630883120313D30071
:10088800013083160313E000831203135B0A8316F7
:100898000313502C0310E00DFF3E031D4E2C60087F
:1008A800E100610883120313CB00013083160313A0
:1008B800E000831203134A0A83160313652C0310FE
:1008C800E00DFF3E031D632C0130E100831203138A
:1008D800490A83160313722C0310E10DFF3E031D12
:1008E800702C0130E200831203135C0A8316031391
:1008F8007F2C0310E20DFF3E031D7D2C620861046E
:100908006004E300630883120313CD00FF308316ED
:100918000313E000600883120313D700FF30831627
:100928000313E000600883120313D800D001FF30DE
:1009380083160313E000600883120313CC006803D6
:1009480003198F2D013083160313E000831203135C
:100958005E0A83160313B22C0310E00DFF3E031D3D
:10096800B02C6008E100610883120313D200013043
:1009780083160313E00083120313510A831603132B
:10098800C72C0310E00DFF3E031DC52C0130E1000C
:10099800831203134F0A83160313D42C0310E10D9B
:1009A800FF3E031DD22C0130E200831203135F0ABD
:1009B80083160313E12C0310E20DFF3E031DDF2C09
:1009C800620861046004E300630883120313D30020
:1009D800013083160313E000831203135B0A8316A6
:1009E8000313F82C0310E00DFF3E031DF62C6008DE
:1009F800E100610883120313CB000130831603134F
:100A0800E000831203134A0A831603130D2D031003
:100A1800E00DFF3E031D0B2D0130E100831203138F
:100A2800490A831603131A2D0310E10DFF3E031D17
:100A3800182D0130E200831203135C0A8316031396
:100A4800272D0310E20DFF3E031D252D62086104CA
:100A58006004E300630883120313CD00FF3083169C
:100A68000313E000600883120313D700FF308316D6
:100A78000313E000600883120313D800D001FF308D
:100A880083160313E000600883120313CC008F2D34
:100A980003308312031367020318562D02306402D1
:100AA8000318B52D0130872D043083120313670214
:100AB8000318622D033064020318B52D0430872D06
:100AC800063083120313670203186E2D0530640283
:100AD8000318B52D0530872D0730831203136702DD
:100AE80003187A2D063064020318B52D0630872DB9
:100AF80008308312031367020318862D0730640237
:100B08000318B52D073083160313E000600883121D
:100B18000313D600B52D0630E9000030EA00863010
:100B2800EB000030EC00FF3083160313E000600890
:100B380083120313ED00EE010A128A11C2250A126C
:100B48008A11013A03194C2D033A0319582D013A19
:100B58000319642D073A0319702D013A03197C2DE6
:100B6800B52D0330831203134E020318C12D013033
:100B780083160313E0006008DF00C12D83120313FE
:100B88006B08840083176C1C831300086D04F40041
:100B98006B08840083176C1C831374088000690831
:100BA800840083176A1C831300086D05F4006E0A1D
:100BB800DF2D0310F40CFF3E031DDD2D7408080023
:100BC8007E088A007F088200E4250A128A118000C4
:100BD800840A04087D0603190034FF0A0319FE0A73
:100BE800E82D7308FF0072088A0071088400700EEF
:100BF8008300FE0E7E0E09000134013401340134F5
:100C08000134013401340134013464008001840A60
:0C0C180004060319003404060A2E0134FF
:02400E00723FFF
:00000001FF
